:020000040800F2
:1000000000500020A13600089D3200089F320008F1
:10001000A1320008A3320008A53200080000000049
:10002000000000000000000000000000A7320008EF
:10003000A932000800000000AB320008AD32000811
:10004000E9360008E9360008E9360008E936000814
:10005000E9360008E9360008E9360008E936000804
:10006000E9360008E9360008E9360008E9360008F4
:10007000E9360008E9360008E9360008E9360008E4
:10008000E9360008E9360008E9360008B932000808
:10009000C9320008E9360008E9360008E9360008E8
:1000A000E9360008E9360008E9360008E9360008B4
:1000B000E9360008E9360008E9360008E9360008A4
:1000C000E9360008E9360008E9360008E936000894
:1000D000E9360008E9360008E9360008E936000884
:1000E000D9320008E9360008E936000800000000AF
:1000F0000000000000000000000000000000000000
:0C01000000000000000000005FF808F1A3
:10010C0010B5054C237833B9044B13B10448AFF345
:10011C0000800123237010BD380100200000000076
:10012C00743F000808B5034B1BB103490348AFF3F8
:10013C00008008BD000000003C010020743F000856
:10014C0010B504460E4B18784FF47A73B3FBF0F3EA
:10015C000C4A1068B0FBF3F000F0A0F868B90F2C53
:10016C0001D901200AE0002221464FF0FF3000F0B7
:10017C0055F8034B5C60002000E0012010BD00BF6F
:10018C00000000208800002008B5074A136843F0DF
:10019C0010031360032000F02FF80020FFF7D0FFAE
:1001AC0002F08EFF002008BD00200240034A1168B7
:1001BC00034B1B780B441360704700BF8001002079
:1001CC0000000020014B1868704700BF8001002020
:1001DC0038B50446FFF7F6FF0546B4F1FF3F02D0F1
:1001EC00044B1B781C44FFF7EDFF401BA042FAD3D5
:1001FC0038BD00BF00000020074AD36823F4E06339
:10020C001B041B0C000200F4E060184340F0BF60BC
:10021C0040F40030D060704700ED00E030B4174B74
:10022C00DB68C3F30223C3F10704042C28BF0424A6
:10023C001D1D062D18D9033B4FF0FF3505FA04F4AC
:10024C0021EA0401994005FA03F322EA0303194356
:10025C0000280BDB0901C9B200F1604000F56140D8
:10026C0080F8001330BC70470023E5E700F00F0066
:10027C000901C9B2024B1954F4E700BF00ED00E0CC
:10028C0014ED00E000F01F02400901239340024AE4
:10029C0042F82030704700BF00E100E00138B0F1B7
:1002AC00807F0AD2064B5860064AF02182F8231050
:1002BC000020986007221A6070470120704700BF29
:1002CC0010E000E000ED00E0042805D0054A1368BA
:1002DC0023F0040313607047024A136843F00403CD
:1002EC001360704710E000E0704708B5FFF7FCFFA3
:1002FC0008BD0000F0B482B000263546A1E0002C09
:10030C0059D0012C00D1CE68FF2B68D88446FF2B26
:10031C0068D8AC00DCF800200F27A74022EA0702BF
:10032C0006FA04F42243CCF800204A6812F0805FED
:10033C0000F086805E4A946944F0010494619269ED
:10034C0002F001020192019AAC08A71C594A52F81A
:10035C00272005F00307BF004FF00F0C0CFA07FC29
:10036C0022EA0C0C544A904242D002F58062904230
:10037C007FD002F5806290427DD002F5806290427F
:10038C0034D0042235E04D4FBC4214D00BD94C4F25
:10039C00BC4210D007F58037BC420CD0A7F58017B3
:1003AC00BC42B1D107E0A7F58017BC4203D007F5DA
:1003BC008037BC42A8D18C687CB1012C08D042613A
:1003CC000826A1E7CE6808369EE7CE680C369BE778
:1003DC000261082698E7002696E7042694E700F1C8
:1003EC00040C94E7A5F10804A40093E7032200E0B1
:1003FC000022BA4042EA0C0202342E4F47F8242065
:10040C004A6812F4803F38D02E4C22681A4322607E
:10041C004A6812F4003F36D02A4C62681A43626074
:10042C004A6812F4801F34D0264CA2681A43A2608A
:10043C004A6812F4001F32D0224CE2681343E36086
:10044C0001350F2D31D80122AA400B6813409A4276
:10045C00F6D14C68122CB8D095D8022CB2D07FF6BD
:10046C004EAF032CB7D0112C7FF44EAFCE680436B0
:10047C004AE70122BDE70222BBE7124C226822EABE
:10048C0003022260C4E70F4C626822EA0302626036
:10049C00C6E70C4CA26822EA0302A260C8E7094C2A
:1004AC00E26822EA0303E360CAE702B0F0BC7047DB
:1004BC000010024000000140000801400000211023
:1004CC0000003110000401408368194201D1002062
:1004DC00704701207047704708B5054B5B690342B4
:1004EC0000D108BD024B5861FFF7F5FFF9E700BFDB
:1004FC0000040140002866D0F0B587B0044690F89F
:10050C002934C3B1032384F82934206801F0D3FAC9
:10051C00254655F8107B6E460FCD0FC62B68336001
:10052C00231D0ECB384601F0B7FA0021206801F0EC
:10053C00CCFA002315E080F8283402F013FFE1E731
:10054C0004EB4312012182F8291082F8283093869B
:10055C00002182F82B109163D1639A1C5201A15097
:10056C0001330E2BECD9002312E004EB43120021D3
:10057C0082F8291282F82832938682F82B12C2F85C
:10058C003812C2F83C1203F112025201A15001338D
:10059C000E2BEAD9254655F8107B6E460FCD0FC6AB
:1005AC002B683360231D0ECB384601F090FA0025E2
:1005BC0084F82450012384F82934206801F09BFD31
:1005CC00284607B0F0BD0120704790F82834012B65
:1005DC0010D010B50446012180F8281402F0F1FF68
:1005EC00206801F086FD206801F05DFA002084F897
:1005FC00280410BD0220704790F82834012B0DD030
:10060C0010B50446012380F8283480F824100068C3
:10061C0001F069FD002084F8280410BD0220704709
:10062C0038B54DB2002D1CDB01F07F04640104F5DC
:10063C000A74044401F07F012170ED0F6570226192
:10064C00E37090F82834012B11D00546012380F873
:10065C0028342146006801F050FA002085F828045F
:10066C0038BD01F07F04640128340444E2E7022021
:10067C00F6E74AB2002A1BDB01F07F035B0103F5AE
:10068C000A73034401F07F011970D20F5A7090F86D
:10069C002824012A12D010B50446012280F82824FF
:1006AC001946006801F0BDFB002084F8280410BD39
:1006BC0001F07F035B0128330344E3E7022070471A
:1006CC0070B501F07F056C0104F50A710144044416
:1006DC00C4F83C2205F11202520186188350002303
:1006EC00736084F8293284F8285225B1006801F02F
:1006FC001EFD002070BD006801F019FDF9E770B512
:10070C0001F07F056C0104F1280101440444E2630B
:10071C00AA1C52018618835000237360012384F8AD
:10072C00293084F8285025B1006801F000FD002024
:10073C0070BD006801F0FBFCF9E770B582B00446AF
:10074C000023ADF80630ADF804302068B0F8443022
:10075C009BB2ADF8063013F4004F00F00D82BDF8DB
:10076C00065015F00F0540F0C280BDF8063013F0AE
:10077C00100F50D003889BB2ADF80430BDF8043094
:10078C0013F4006F79D1BDF8043013F4004FDCD0B2
:10079C00038823F070031B051B0D03802068B0F841
:1007AC00503094F8282203EBC203063300EB4303CA
:1007BC00D3F80034C3F30903C4F84432002B7CD1C2
:1007CC000021204602F0F6FD2368B3F850200632D3
:1007DC0003EB4203D4F838123E297CD9C1F34F12F3
:1007EC0011F01F0F01D1013A92B26FEAC2626FEAA7
:1007FC00524292B2C3F80024226813889BB223F4AD
:10080C00804323F0700383F4405343F4004343F0DC
:10081C008003138099E703889BB223F4E14323F010
:10082C0070039BB203802268B2F8503094F8281001
:10083C0003EBC103023302EB4303D3F80034C3F3DD
:10084C0009036364E26B1344E3630021204602F066
:10085C00BBFD94F82430002B3FF477AF236C002BB6
:10086C007FF473AF94F82430226843F08003A2F82D
:10087C004C30002384F8243067E7B0F8503094F8FB
:10088C00282203EBC203063300EB4303D3F80034F6
:10089C00C3F30903C4F84432B4F82C2204F22C41FB
:1008AC0001F0A2FD2268138823F070031B051B0DB9
:1008BC001380204602F076FD47E7B4F82C22D4F8DA
:1008CC003C1201F091FDD4F84422D4F83C3213448C
:1008DC00C4F83C3274E7C1F34F0211F0010F01D0A0
:1008EC00013292B2920292B2C3F8002484E730F83B
:1008FC0025309BB2ADF80430BDF8043013F4004F32
:10090C0035D1BDF8043013F0800F3FF41EAF2268D0
:10091C0032F825309BB223F4E14323F070039BB2F1
:10092C0022F8253004EB451393F83230002B40F0BD
:10093C00B2802068B0F8503004EB451292F82820B1
:10094C0003EBC203023300EB4303D3F80034C3F3CD
:10095C000903AA1C04EB42125360002B00F0C68062
:10096C0004EB45118A8DC96B01F0CCFBBEE030F86D
:10097C00253023F070031B051B0D20F8253004EBEC
:10098C00451393F83232D3B92068B0F8503004EBE9
:10099C00451292F8282203EBC203063300EB430303
:1009AC00B3F80064C6F3090686B304EB451133466D
:1009BC00B1F82C22D1F83C1201F016FD26E020688B
:1009CC0004EB451393F8282230F8223013F4804FAF
:1009DC0042D0B0F8503003EBC203023300EB4303B8
:1009EC00B3F80064C6F3090666BB226804EB451332
:1009FC0093F8281232F8213023F0F0031B051B0D5D
:100A0C0043F4004343F0C00322F8213005F11203F4
:100A1C005B01E1184A6832444A6004EB4511D1F895
:100A2C003C223244C1F83C22E3581BB1D1F83812B5
:100A3C008E4228D204EB451393F82812204602F07C
:100A4C00B9FC5EE704EB45113346B1F82E22D1F820
:100A5C003C1201F0C9FCC8E7B0F8503003EBC203FC
:100A6C00063300EB4303B3F80064C6F30906002E0B
:100A7C00BBD004EB45113346B1F83022D1F83C120F
:100A8C0001F0B2FCB1E704EB451191F828122046B5
:100A9C00FFF716FE35E7206804EB451393F8282082
:100AAC0030F8223013F0400F46D0B0F8503003EB42
:100ABC00C203023300EB4303D3F80034C3F309033E
:100ACC00AA1C04EB421253607BBB226804EB451357
:100ADC0093F8281032F8213023F0F0031B051B0D7E
:100AEC0043F4404343F0800322F821302268B2F8EB
:100AFC00503004EB451090F8281003EBC10302337F
:100B0C0002EB4303D3F80024C2F30902AB1C5B01D4
:100B1C00E1184A60C16B0A44C263E35823BB90F8E6
:100B2C002810204602F050FC0FE604EB4511CA8D4C
:100B3C00C96B01F0E7FAC8E7B0F8503003EBC20319
:100B4C00063300EB4303D3F80034C3F30903AA1CA8
:100B5C0004EB42125360002BB7D004EB45110A8E04
:100B6C00C96B01F0CFFAB0E704EB451595F82810E6
:100B7C002046FFF7C4FDE8E5002002B070BD10B5BB
:100B8C000446006801F0B9FA10F4004F45D1206812
:100B9C0001F0B3FA10F4806F43D1206801F0ADFA84
:100BAC0010F4804F08D02268B2F844309BB223F482
:100BBC0080439BB2A2F84430206801F09EFA10F4F6
:100BCC00005F08D02268B2F844309BB223F4005383
:100BDC009BB2A2F84430206801F08FFA10F4805FC9
:100BEC0030D1206801F089FA10F4006F49D12068E7
:100BFC0001F083FA10F4007F64D1206801F07DFAD3
:100C0C0010F4807F08D02268B2F844309BB223F4F1
:100C1C0080739BB2A2F8443010BD2046FFF78DFDC7
:100C2C00B5E72268B2F844309BB223F480639BB2E0
:100C3C00A2F84430204602F0D6FB00212046FFF7F4
:100C4C00DBFCAAE72268B2F840309BB223F0040325
:100C5C009BB2A2F840302268B2F840309BB223F02D
:100C6C0008039BB2A2F84030204602F0D9FB226860
:100C7C00B2F844309BB223F480539BB2A2F84430B8
:100C8C00AFE72268B2F8403043F00803A2F84030D6
:100C9C002268B2F844309BB223F400639BB2A2F8F2
:100CAC0044302268B2F8403043F00403A2F84030DC
:100CBC00206801F022FA10F4805F98D1204602F0EF
:100CCC009FFB94E72268B2F844309BB223F4007384
:100CDC009BB2A2F84430204602F07FFB8DE738B57A
:100CEC004AB2002A1BDB4B0103F50A7303440124AF
:100CFC009C7001F07F051D70D20F5A7090F828245B
:100D0C00A24218D00446012280F828241946006813
:100D1C0001F069F94DB1002084F8280438BD01F0C8
:100D2C007F035B0128330344E1E704F22C41206884
:100D3C0001F0E6F9EFE70220F0E710B54AB2002A1D
:100D4C001ADB4B0103F50A73034400249C7001F079
:100D5C007F011970D20F5A7090F82824012A11D0F3
:100D6C000446012280F828241946006801F072F923
:100D7C00002084F8280410BD01F07F035B012833A8
:100D8C000344E2E70220F6E711F0800F0CD001F0EB
:100D9C007F014901283101445AB101228A72CB806A
:100DAC001B0C0B8100207047490101F50A710144AD
:100DBC00F2E78A728B80F5E782B0084B1B68084A11
:100DCC00A2FB03235B0A00FB03F0019000BF019B15
:100DDC005A1E0192002BF9D102B0704788000020F6
:100DEC00D34D621070B582B00446036813F0010F46
:100DFC002CD0AB4B5B6803F00C03042B1DD0A84B21
:100E0C005B6803F00C03082B12D06368B3F5803FCA
:100E1C0041D0002B55D103F1804303F504331A68FC
:100E2C0022F480321A601A6822F480221A6037E0A9
:100E3C009B4B5B6813F4803FE7D0994B1B6813F412
:100E4C00003F03D06368002B00F0AE81236813F0E1
:100E5C00020F76D0924B5B6813F00C0F5FD0904B67
:100E6C005B6803F00C03082B54D02369002B00F0B3
:100E7C008A808C4B01221A60FFF7A4F90546884B37
:100E8C001B6813F0020F75D1FFF79CF9401B022869
:100E9C00F5D903208BE1824A136843F48033136045
:100EAC00636843B3FFF78EF905467D4B1B6813F45B
:100EBC00003FCBD1FFF786F9401B6428F5D90320FE
:100ECC0075E1B3F5A02F09D0754B1A6822F4803266
:100EDC001A601A6822F480221A60E1E703F1804359
:100EEC00A3F53C331A6842F480221A601A6842F463
:100EFC0080321A60D4E7FFF765F90546684B1B682A
:100F0C0013F4003FA2D0FFF75DF9401B6428F5D91C
:100F1C0003204CE1624B5B6813F4803FA5D1604B1E
:100F2C001B6813F0020F04D02369012B01D00120A0
:100F3C003DE15B4A136823F0F803616943EAC1039E
:100F4C001360236813F0080F32D0A369002B5BD019
:100F5C00554B01221A60FFF735F90546504B5B6A79
:100F6C0013F0020F21D1FFF72DF9401B0228F5D900
:100F7C0003201CE14A4A136823F0F803616943EA31
:100F8C00C1031360DDE7474B00221A60FFF71AF923
:100F9C000546434B1B6813F0020FD2D0FFF712F932
:100FAC00401B0228F5D9032001E10120FFF704FFC3
:100FBC00236813F0040F00F09780394BDB6913F0B2
:100FCC00805F33D1364BDA6942F08052DA61DB69EB
:100FDC0003F080530193019B0125344B1B6813F4E0
:100FEC00807F25D0E368012B36D0002B4CD103F148
:100FFC00804303F504331A6A22F001021A621A6A5A
:10100C0022F004021A622CE0274B00221A60FFF730
:10101C00D9F80546224B5B6A13F0020FC8D0FFF7D4
:10102C00D1F8401B0228F5D90320C0E00025D4E7F5
:10103C001E4A136843F480731360FFF7C3F8064627
:10104C001A4B1B6813F4807FCCD1FFF7BBF8801BC5
:10105C006428F5D90320AAE0114A136A43F001036E
:10106C001362E36873B3FFF7ADF806460C4B1B6ACB
:10107C0013F0020F37D1FFF7A5F8801B41F288332C
:10108C009842F3D9032092E0052B11D0044B1A6A35
:10109C0022F001021A621A6A22F004021A62E0E7D4
:1010AC0000100240000042428004424200700040A6
:1010BC00414B1A6A42F004021A621A6A42F00102A7
:1010CC001A62CEE7FFF77EF806463B4B1B6A13F01D
:1010DC00020F08D0FFF776F8801B41F28833984254
:1010EC00F3D9032063E0E5B9E369002B5ED0324A03
:1010FC00526802F00C02082A5BD0022B17D02F4B3F
:10110C0000221A60FFF75EF804462B4B1B6813F0A5
:10111C00007F47D0FFF756F8001B0228F5D90320B3
:10112C0045E0254AD36923F08053D361DCE7234B98
:10113C0000221A60FFF746F805461F4B1B6813F098
:10114C00007F06D0FFF73EF8401B0228F5D903209C
:10115C002DE0236AB3F5803F1AD017494B6823F46E
:10116C007413226A606A024313434B60134B0122CF
:10117C001A60FFF727F804460F4B1B6813F0007F2B
:10118C000ED1FFF71FF8001B0228F5D903200EE043
:10119C00094A536823F40033A1680B435360DCE71E
:1011AC00002004E0002002E0012000E0002002B05A
:1011BC0070BD0120FBE700BF0010024060004242FE
:1011CC0010B487B0164C94E80F000DF1180C0CE914
:1011DC000F00238AADF80430124B5B6803F00C024D
:1011EC00082A1AD1C3F38342624412F8102C13F468
:1011FC00803F05D10C4800FB02F007B010BC7047D3
:10120C00084B5B68C3F34043634413F8143C074832
:10121C0000FB02F0B0FBF3F0EFE70448EDE700BF92
:10122C008C3F00080010024000093D0000127A00BB
:10123C00594B1B6803F007038B420CD2564A1368B8
:10124C0023F007030B431360136803F007038B426F
:10125C0001D00120704770B5036813F0020F06D05F
:10126C004E4A536823F0F0038468234353600C46C2
:10127C000546036813F0010F52D04368012B23D0AD
:10128C00022B28D0454A126812F0020F00F082801F
:10129C0042494A6822F0030213434B60FEF792FF67
:1012AC0006466B68012B1DD0022B2AD03B4B5B688A
:1012BC0013F00C0F34D0FEF785FF801B41F28833FE
:1012CC009842F3D9032064E0344A126812F4003FC8
:1012DC00DED101205DE0314A126812F0007FD7D1D7
:1012EC00012056E02D4B5B6803F00C03042B17D048
:1012FC00FEF768FF801B41F288339842F2D9032035
:10130C0047E0264B5B6803F00C03082B08D0FEF774
:10131C0059FF801B41F288339842F2D9032038E000
:10132C001D4B1B6803F00703A3420CD91A4A136820
:10133C0023F0070323431360136803F00703A3424E
:10134C0001D0012025E02B6813F0040F06D0134ABE
:10135C00536823F4E063E9680B4353602B6813F084
:10136C00080F07D00D4A536823F46053296943EAE8
:10137C00C1035360FFF724FF084B5B68C3F30313EF
:10138C00074AD35CD840074B18600020FEF7D8FE04
:10139C00002070BD0120FCE700200240001002403C
:1013AC00A03F000888000020014B1868704700BF60
:1013BC008800002008B5FFF7F7FF044B5B68C3F308
:1013CC000223034AD35CD84008BD00BF0010024082
:1013DC00B03F000808B5FFF7E7FF044B5B68C3F3A9
:1013EC00C223034AD35CD84008BD00BF00100240A2
:1013FC00B03F000870B582B00446036813F0010FCB
:10140C0034D03E4BDB6913F0805F48D13B4BDA693B
:10141C0042F08052DA61DB6903F080530193019B47
:10142C000125374B1B6813F4807F3AD0334B1B6A72
:10143C0013F4407311D0626802F440729A420CD0DB
:10144C002E4A136A23F440702E4901260E600026A2
:10145C000E60106213F0010F37D1284A136A23F47F
:10146C00407361680B431362002D3FD1236813F066
:10147C00020F06D0214A536823F44043A1680B4362
:10148C005360236813F0100F35D01C4A536823F4B3
:10149C008003E1680B435360002002B070BD00254F
:1014AC00BFE7174A136843F480731360FEF78AFE94
:1014BC000646134B1B6813F4807FB7D1FEF782FEF0
:1014CC00801B6428F5D90320E7E7FEF77BFE064670
:1014DC000A4B1B6A13F0020FBFD1FEF773FE801B81
:1014EC0041F288339842F3D90320D6E7D36923F02D
:1014FC008053D361BAE70020CFE700BF0010024051
:10150C00007000404004424200283CD010B5044614
:10151C000023836290F85130002B31D0022384F8E1
:10152C0051302268136823F0400313606368A2688B
:10153C001343E26813432269134362691343A2699C
:10154C0002F400721343E2691343226A1343A16A43
:10155C0022680B431360638B03F00403616A2268F7
:10156C000B4353602368E26A1A612268D36923F43F
:10157C000063D36100206065012384F8513010BDF5
:10158C0001F0EEFDCAE701207047000003681B4A1A
:10159C0090420AD0B0F1804F07D0A2F5943290421D
:1015AC0003D002F58062904203D123F070034A68A5
:1015BC001343124A90420AD0B0F1804F07D0A2F5E3
:1015CC009432904203D002F58062904203D123F40E
:1015DC004073CA68134323F080034A6913430360C2
:1015EC008B68C3620B688362044B984202D0012360
:1015FC00436170470B690363F9E700BF002C01409E
:10160C00002847D0F8B505460C4690F83D30002B25
:10161C003BD0022385F83D30294651F8042B9368C2
:10162C0023F0070393602868FFF7B0FF29688A68E6
:10163C008E690F6A2068104326F4407626F0030664
:10164C00A268A36942EA0323334323F47C4323F0C7
:10165C00FC03E668E26946EA02261E43226A13038B
:10166C00226943EA0213334327F0AA0762686469CC
:10167C0042EA04123A43886029688B612B681A622B
:10168C00012385F83D300020F8BD80F83C3001F096
:10169C008BFDBEE70120704710B4012303FA01F45F
:1016AC00036A23EA04030362036A8A401343036256
:1016BC0010BC704710B5044661B1042916D0012244
:1016CC0000210068FFF7E8FF012204212068FFF7E2
:1016DC00E3FF04E0012200210068FFF7DDFF226830
:1016EC00136843F001031360002010BD0122042194
:1016FC000068FFF7D1FFF2E790F83C30012B22D0C5
:10170C0030B4012280F83C20022380F83D3004687C
:10171C00636823F070036360046863680D682B438F
:10172C0063600468A36823F08003A3600468A36863
:10173C0049680B43A36080F83D20002380F83C30BF
:10174C00184630BC70470220704700002DE9F84362
:10175C0005460268136923F44053C1680B431361B7
:10176C00836802691343426913430168CA6822F40F
:10177C00B05222F00C021343CB600268536923F47D
:10178C00407381690B4353610268594B9A4257D09D
:10179C00FFF710FE00EB800000EB80006C68A400EB
:1017AC00B0FBF4F4534FA7FB043464092601FFF794
:1017BC0001FE00EB800000EB80006C68A400B0FB25
:1017CC00F4F9FFF7F7FD00EB800000EB80006C688C
:1017DC00A400B0FBF4F4A7FB043464094FF06408D4
:1017EC0008FB149424013234A7FB0434640904F07C
:1017FC00F0043444FFF7DEFD00EB800000EB8000CA
:10180C006E68B600B0FBF6F6FFF7D4FD00EB800077
:10181C0000EB80006B689B00B0FBF3F0A7FB003083
:10182C00400908FB10684FEA081808F13208A7FBBA
:10183C000837C7F343172B6827449F60BDE8F8832C
:10184C00FFF7C8FD00EB800000EB80006C68A40083
:10185C00B0FBF4F4274FA7FB043464092601FFF70F
:10186C00B9FD00EB800000EB80006C68A400B0FBBD
:10187C00F4F9FFF7AFFD00EB800000EB80006C6823
:10188C00A400B0FBF4F4A7FB043464094FF0640823
:10189C0008FB149424013234A7FB0434640904F0CB
:1018AC00F0043444FFF796FD00EB800000EB800061
:1018BC006E68B600B0FBF6F6FFF78CFD00EB80000F
:1018CC0000EB80006B689B00B0FBF3F0A7FB0030D3
:1018DC00400908FB10684FEA081808F13208A7FB0A
:1018EC000837C7F343172B6827449F60A6E700BF50
:1018FC00003801401F85EB512DE9F04105460F469C
:10190C0016469846069C2B681B6837EA03030CBFE7
:10191C0001230023B3421DD1B4F1FF3FF3D02CB10E
:10192C00FEF750FCA0EB0800A042ECD92A68D36863
:10193C0023F4D073D3602A68536923F001035361F5
:10194C00202385F8393085F83A30002385F8383073
:10195C00032000E00020BDE8F08158B310B5044628
:10196C0090F839300BB3242384F839302268D368CB
:10197C0023F40053D3602046FFF7E8FE2268136976
:10198C0023F4904313612268536923F02A035361B3
:10199C002268D36843F40053D3600020E063202313
:1019AC0084F8393084F83A3010BD80F8383001F0C2
:1019BC0039FCD8E7012070472DE9F04182B01E4672
:1019CC0090F83930DBB2202B55D104460D469046A9
:1019DC00002955D0002A55D090F83830012B53D01F
:1019EC00012380F838300023C363212380F8393079
:1019FC00FEF7E8FB0746A4F82480A4F8268010E044
:101A0C0000963B46002280212046FFF775FF0028F8
:101A1C003CD12B882268C3F3080353602369C3B9F4
:101A2C000235E38C9BB2B3B1E38C013B9BB2E384F4
:101A3C00A368B3F5805FE3D000963B46002280217B
:101A4C002046FFF759FF18BB2A7823685A600135E6
:101A5C00E7E70135E5E700963B46002240212046AA
:101A6C00FFF74AFF0346A8B9202284F83920002248
:101A7C0084F8382000E00223184602B0BDE8F0815B
:101A8C000123F9E70123F7E70223F5E70323F3E743
:101A9C000323F1E70323EFE784B001A880E80E00ED
:101AAC00002004B07047B0F8403043F43F43A0F836
:101ABC00403000207047B0F8403023F474535B047E
:101ACC005B0CA0F84030002070470020704784B0B9
:101ADC0038B505AC84E80E000123A0F84030002492
:101AEC00A0F84040A0F84440A0F85040FFF7DBFFBE
:101AFC002046BDE8384004B0704710B4CB78032BB7
:101B0C000FD8DFE803F0026D54600A7830F8223009
:101B1C009BB223F4EC4323F0700343F4007320F8DE
:101B2C0022300A7830F8223023F0F0031B051B0D0D
:101B3C00134343F4004343F0800320F822308B7AA4
:101B4C00002B40F0AF804B78002B56D08A8852087F
:101B5C00B0F850300C7803EBC40300EB4303520095
:101B6C00C3F800240A7830F8223013F0400F0BD061
:101B7C0030F8223023F0F0031B051B0D43F4004317
:101B8C0043F0C00320F822300A7830F822309BB2A0
:101B9C0023F4E04323F0400383F0200343F4004399
:101BAC0043F0800320F82230002010BC70470A78E4
:101BBC0030F822309BB223F4EC4323F070039BB239
:101BCC0020F82230ADE70A7830F822309BB223F4AB
:101BDC00EC4323F0700343F4C06320F82230A0E7F9
:101BEC000A7830F822309BB223F4EC4323F07003D4
:101BFC0043F4806320F8223093E78A885208B0F8C7
:101C0C0050300C7803EBC403043300EB4303520055
:101C1C00C3F80024B0F850300A7803EBC203063343
:101C2C0000EB43030C693E2C30D9C4F34F1214F073
:101C3C001F0F01D1013A92B26FEAC2626FEA5242AF
:101C4C0092B2C3F800240A7830F8223013F4804F93
:101C5C000BD030F8223023F0F0031B051B0D43F49E
:101C6C00404343F0800320F822300A7830F82230C9
:101C7C009BB223F4804323F0700383F4405343F46A
:101C8C00004343F0800320F822308DE7C4F34F0269
:101C9C0014F0010F01D0013292B2920292B2C3F849
:101CAC000024D0E70A7830F8223023F4F8731B05AF
:101CBC001B0D43F4014343F0800320F82230CA8803
:101CCC005208B0F850300C7803EBC40300EB43031C
:101CDC005200C3F800240A895208B0F850300C782E
:101CEC0003EBC403043300EB43035200C3F800249A
:101CFC004B78002B4BD10A7830F8223013F4804FFC
:101D0C000BD030F8223023F0F0031B051B0D43F4ED
:101D1C00404343F0800320F822300A7830F8223018
:101D2C0013F0400F0BD030F8223023F0F0031B05DA
:101D3C001B0D43F4004343F0C00320F822300A7813
:101D4C0030F8223023F0F0031B051B0D43F4004345
:101D5C0043F0C00320F822300A7830F822309BB2CE
:101D6C0023F4804323F0700383F4405348F280043F
:101D7C00234320F822300A7830F822309BB223F427
:101D8C00E04323F04003234320F822300CE70A7889
:101D9C0030F8223013F4804F0BD030F8223023F07F
:101DAC00F0031B051B0D43F4404343F0800320F864
:101DBC0022300A7830F8223013F0400F0BD030F874
:101DCC00223023F0F0031B051B0D43F4004343F0BA
:101DDC00C00320F822300A7830F8223023F0F003C8
:101DEC001B051B0D43F4404343F0800320F82230C5
:101DFC000B7830F8232092B222F4E04222F0400219
:101E0C0048F28004224320F823200A7830F822304C
:101E1C009BB223F4804323F07003234320F8223039
:101E2C00C2E68B7A002B44D14B780BB30A7830F88E
:101E3C00223013F0400F0BD030F8223023F0F00397
:101E4C001B051B0D43F4004343F0C00320F8223064
:101E5C000A7830F822309BB223F4E04323F040039D
:101E6C0043F4004343F0800320F8223000207047F5
:101E7C000A7830F8223013F4804F0BD030F822302F
:101E8C0023F0F0031B051B0D43F4404343F0800388
:101E9C0020F822300A7830F822309BB223F48043A9
:101EAC0023F0700343F4004343F0800320F8223006
:101EBC00DCE710B44B78002B4BD10A7830F8223089
:101ECC0013F4804F0BD030F8223023F0F0031B05B5
:101EDC001B0D43F4404343F0800320F822300A7872
:101EEC0030F8223013F0400F0BD030F8223023F0B2
:101EFC00F0031B051B0D43F4004343F0C00320F813
:101F0C0022300A7830F8223023F0F0031B051B0D29
:101F1C0043F4004343F0C00320F822300B7830F830
:101F2C00232092B222F4804222F0700248F2800404
:101F3C00224320F823200A7830F822309BB223F475
:101F4C00E04323F04003234320F82230002010BC50
:101F5C0070470A7830F8223013F4804F0BD030F8E9
:101F6C00223023F0F0031B051B0D43F4404343F0D8
:101F7C00800320F822300A7830F8223013F0400F1A
:101F8C000BD030F8223023F0F0031B051B0D43F46B
:101F9C00004343F0C00320F822300A7830F8223096
:101FAC0023F0F0031B051B0D43F4404343F0800367
:101FBC0020F822300B7830F8232092B222F4E04241
:101FCC0022F0400248F28004224320F823200A78B1
:101FDC0030F822309BB223F4804323F07003234368
:101FEC0020F82230B2E70A788AB14B7813BB30F86C
:101FFC0022309BB223F4804323F0700383F480538C
:10200C0043F4004343F0800320F8223010E030F812
:10201C0022309BB223F4804323F0400383F480539B
:10202C0083F0100343F4004343F0800320F8223084
:10203C000020704730F822309BB223F4E04323F0A9
:10204C00400383F0100343F4004343F0800320F873
:10205C002230EDE74B781BB30A7830F8223013F0BE
:10206C00400F0BD030F8223023F0F0031B051B0D72
:10207C0043F4004343F0C00320F822300A7830F8D0
:10208C0022309BB223F4E04323F0400383F030036F
:10209C0043F4004343F0800320F8223000207047C3
:1020AC000A7830F8223013F4804F0BD030F82230FD
:1020BC0023F0F0031B051B0D43F4404343F0800356
:1020CC0020F822300A7830F822309BB223F4804377
:1020DC0023F0700383F4405343F4004343F0800334
:1020EC0020F82230DAE711B98023A0F84C30002018
:1020FC0070470020704700207047B0F844007047CC
:10210C000020704701335B1000EB420202F5806245
:10211C0063B110B40C78487844EA002422F8044BDC
:10212C000231013B002BF5D110BC70477047F8B55C
:10213C008A694D78012D34D00B69934280F0EA8086
:10214C00D21A8A618A7A002A40F0F480B0F85020C2
:10215C000C7802EBC402063200EB42023E2B40F23A
:10216C00DD80C3F34F1413F01F0F01D1013CA4B257
:10217C006FEAC4646FEA5444A4B2C2F800440A780B
:10218C0030F822309BB223F4804323F0700383F4A5
:10219C00405343F4004343F0800320F822300020E6
:1021AC00F8BD0F69974225D2D21B8A610E460446B0
:1021BC008B7A1BB30B7830F8232012F0400F69D0C8
:1021CC00002D37D1B0F8502002EBC303063300EBDF
:1021DC0043033E2F22D9C7F34F1217F01F0F01D123
:1021EC00013A92B26FEAC2626FEA524292B2C3F8FB
:1021FC00002428E000238B611746D7E7BBB28A88FE
:10220C004969FFF77FFFB4F85030327803EBC20313
:10221C00023304EB4303C3F800742AE0C7F34F0204
:10222C0017F0010F01D0013292B2920292B2C3F8B0
:10223C00002408E0B0F8502002EBC303023300EB9B
:10224C004303C3F800743289BBB271692046FFF7AF
:10225C0059FF7378002B4DD1327834F8223023F0AB
:10226C00F0031B051B0D43F4004343F0C00324F89B
:10227C002230327834F822309BB223F4E04323F03E
:10228C00400383F0300343F4004343F0800324F80D
:10229C00223084E71DBBB0F8502002EBC30302339D
:1022AC0000EB43033E2F0ED9C7F34F1217F01F0F4D
:1022BC0001D1013A92B26FEAC2626FEA524292B213
:1022CC00C3F8002414E0C7F34F0217F0010F01D03C
:1022DC00013292B2920292B2C3F8002408E0B0F834
:1022EC00502002EBC303023300EB4303C3F800742A
:1022FC00F288A9E7012BBCD1327834F8223023F0D4
:10230C00F0031B051B0D43F4404343F0800324F8FA
:10231C002230AEE700238B61134613E7C3F34F045F
:10232C0013F0010F01D00134A4B2A402A4B2C2F87C
:10233C00004424E7BDB9B0F850200C7802EBC4027D
:10234C00023200EB42023E2B28D9C3F34F1413F098
:10235C001F0F01D1013CA4B26FEAC4646FEA54446C
:10236C00A4B2C2F800444A7882BBB0F850200C7872
:10237C0002EBC402063200EB42023E2B1AD9C3F325
:10238C004F1413F01F0F01D1013CA4B26FEAC464C7
:10239C006FEA5444A4B2C2F80044F0E6C3F34F040D
:1023AC0013F0010F01D00134A4B2A402A4B2C2F8FC
:1023BC000044D8E7C3F34F0413F0010F01D00134EC
:1023CC00A4B2A402A4B2C2F80044D8E6012A7FF455
:1023DC00D6AEB0F850200C7802EBC402023200EBFF
:1023EC004202C2F80034CAE601335B1000EB420231
:1023FC0002F5806204E0106821F8020B013B043204
:10240C00002BF8D170470000292303800048704747
:10241C0008000020D0F8183200201875704710B54D
:10242C00D0F818422369012B07D1D0F81C32DB6895
:10243C0061782078984700232361002010BD0000AC
:10244C000A230380004870473400002038B5044646
:10245C00D0F81852D0F81C32DB6869782878984785
:10246C0002232A460121204601F098F8002038BDAD
:10247C0010B5D0F818420B7813F060032ED0202B37
:10248C005AD14B78023B092B24D8DFE803F014090E
:10249C0023232323231B0F058B78636000204CE040
:1024AC000122211D00F040FC002046E04B881B0A55
:1024BC00A360002041E0012204F1080100F034FC8B
:1024CC0000203AE0012323618A79214600F041FC87
:1024DC00002032E000F0D6F902202EE04B780A2BD7
:1024EC001FD00B2B24D0062B01D0002025E04B88CD
:1024FC001B0A222B07D0212B0DD000210A4600F0FD
:10250C0013FC002019E0CA88022A28BF0222D0F846
:10251C001C321968F3E7CA88092A28BF092207491F
:10252C00EDE7012204F10C0100F0FEFB002004E0B9
:10253C008B78E360002000E0002010BD40000020FC
:10254C0010B50446812100F0D0FF0121204600F097
:10255C00CCFFD4F8183253B1D4F81C329B6898478E
:10256C00D4F8180201F02CF80023C4F8183200201B
:10257C0010BD70B5044602230322812100F0A4FF94
:10258C00022303220121204600F09EFF182001F0B7
:10259C0013F8C4F8180270B1054600260675D4F875
:1025AC001C325B68984702232A460121204600F022
:1025BC00F5FF304670BD0120FCE719B1C0F81C12C4
:1025CC00002070470220704798B108B50346D0F838
:1025DC00140210B10020C3F8140209B1C3F8101290
:1025EC001846012380F8FC31027000F01FFF002018
:1025FC0008BD0220704719B1C0F8141200207047B2
:10260C000220704708B500F051FF002008BD08B546
:10261C00D0F8143233B11B68984708B9002008BDB4
:10262C000220FCE70220FAE708B5D0F814325B6808
:10263C009847002008BD38B5044600F502752846B9
:10264C0000F00CF90123C4F8F431B4F80E32C4F8DC
:10265C00F83194F8081201F01F03012B0ED03BB196
:10266C00022B10D001F08001204600F04CFF03E05B
:10267C002946204600F06FFA002038BD2946204636
:10268C0000F08DFAF8E72946204600F0A4FAF3E7AB
:10269C0010B5044621BB1346D0F8F421032A01D00F
:1026AC00002010BDD0F80C11D0F8102191420CD89C
:1026BC00D0F814321B6923B190F8FC21032A00D105
:1026CC009847204600F05CFBEAE7891AC0F80C1129
:1026DC008A4228BF0A4692B2194600F049FBDFE74E
:1026EC000A46D0F814329B69002BD9D090F8FC1113
:1026FC000329D5D111469847D2E710B504460029D5
:10270C0046D11346D0F8F421022A05D094F80032B1
:10271C00012B39D0002010BDC169026A914219D831
:10272C008169B1FBF2F302FB13132BB98A4203D874
:10273C00D0F8F83199421AD3D4F81432DB682BB1A3
:10274C0094F8FC21032A01D120469847204600F03A
:10275C0022FBDBE78A1AC26192B2194600F0F1FA49
:10276C0000231A461946204600F018FFCEE7002237
:10277C00114600F0E6FA0021C4F8F8110B460A469F
:10278C00204600F00BFFC1E7002384F80032C1E7BC
:10279C000A46D0F814325B69002BBBD090F8FC11C0
:1027AC000329B7D111469847B4E738B504464023FE
:1027BC000022114600F088FE4025C4F810512B462B
:1027CC0000228021204600F07FFE2562012384F840
:1027DC00FC31D4F818322BB1D4F814325B6821795F
:1027EC0020469847002038BD01740020704790F8AF
:1027FC00FC3180F8FD31042380F8FC310020704757
:10280C0090F8FD3180F8FC310020704708B590F845
:10281C00FC31032B01D0002008BDD0F81432DB6949
:10282C00002BF8D09847F6E7002302E00133DBB227
:10283C0001300278002AF9D1184670474B88012BD9
:10284C000BD110B50446C0F80432D0F814329B6892
:10285C009847204600F094FA10BD70470B7803702F
:10286C004B7843708B78CA7803EB022343800B7947
:10287C004A7903EB022383808B79CA7903EB022319
:10288C00C380704710B50446802100F03CFE002147
:10289C00204600F038FE10BD30B583B004460D461E
:1028AC0049880B0A013B062B00F28480DFE803F019
:1028BC000413278282667300D0F810321B680DF166
:1028CC000601007C9847BDF8062012B1EB88002B5E
:1028DC0074D103B030BD037C43B9D0F814329B6A79
:1028EC000DF10600984702234370ECE7D0F8143240
:1028FC00DB6A0DF10600984702234370E3E7C9B287
:10290C00052934D8DFE801F0030B131B232BD0F877
:10291C0010325B680DF10601007C9847D3E7D0F8C4
:10292C0010329B680DF10601007C9847CBE7D0F87C
:10293C001032DB680DF10601007C9847C3E7D0F834
:10294C0010321B690DF10601007C9847BBE7D0F8EB
:10295C0010325B690DF10601007C9847B3E7D0F8A3
:10296C0010329B690DF10601007C9847ABE7D0F85B
:10297C0014329B6B0DF106029847A4E7037C33B924
:10298C00D0F814325B6B0DF1060098479BE7294693
:10299C00FFF778FF9DE7037C43B9D0F814321B6B2B
:1029AC000DF106009847072343708CE72946FFF783
:1029BC0069FF8EE72946FFF765FF8AE79A4228BF31
:1029CC001A46ADF806200146204600F0ADF980E726
:1029DC0038B504468B88E3B9CB88D3B98D7805F02C
:1029EC007F0590F8FC31032B0CD080F8FE51294662
:1029FC0000F0B8FD204600F0C3F935B1022384F88D
:102A0C00FC3109E0FFF73EFF06E0012384F8FC31BE
:102A1C0002E02046FFF736FF38BD000038B504460B
:102A2C000D468978254B1970012909D890F8FC318D
:102A3C00022B09D0032B1CD02946FFF723FF02E001
:102A4C002946FFF71FFF38BD81B14160032380F891
:102A5C00FC31FFF7DCFD022803D0204600F090F992
:102A6C00F1E729462046FFF70DFFECE700F088F967
:102A7C00E9E789B1436899421DD0D9B2FFF7D4FD7B
:102A8C000E4B197861602046FFF7C1FD02280DD06E
:102A9C00204600F075F9D6E7022380F8FC3141603E
:102AAC00FFF7C2FD204600F06BF9CCE72946204623
:102ABC00FFF7E8FEC7E700F063F9C4E75401002014
:102ACC0008B5CB88012B08D190F8FC31022B07D02C
:102ADC00032B0DD0FFF7D6FE01E0FFF7D3FE08BDA8
:102AEC000146002341F8083F012200F01DF9F6E7EA
:102AFC000122011D00F018F9F1E708B590F8FC313E
:102B0C00023B012B0CD80123C360D0F804320BB16B
:102B1C000323C360022200F10C0100F005F908BD8B
:102B2C00FFF7B0FEFBE710B5044690F8FC31023B12
:102B3C00012B0DD84B88012B09D10023C0F804328E
:102B4C00D0F814329B689847204600F019F910BD54
:102B5C00FFF798FEFBE708B54B78092B1CD8DFE88C
:102B6C0003F012181B151B09051B0F0CFFF794FE25
:102B7C00002008BDFFF72CFFFAE7FFF74FFFF7E740
:102B8C00FFF79EFFF4E7FFF7B8FFF1E7FFF756FEFC
:102B9C00EEE7FFF7C8FFEBE7FFF774FEE8E738B5A1
:102BAC0004460D4690F8FC31032B11D10B79012B07
:102BBC000BD8D0F814329B689847EB880BB10020E7
:102BCC0038BD204600F0DCF8F9E7FFF75BFEF6E7CE
:102BDC00FFF758FEF3E738B505460C468A880B78A4
:102BEC0003F06003202B05D1D0F814329B68984772
:102BFC00002038BDD1B26378012B25D0002B47D0F3
:102C0C00032BF5D190F8FC31022B05D0032B0AD005
:102C1C002146FFF737FEEBE70029E9D08029E7D002
:102C2C0000F071FCE4E7638823B919B1802901D065
:102C3C0000F069FCD5F814329B6821462846984769
:102C4C00284600F09DF8D3E790F8FC31022B05D014
:102C5C00032B0AD02146FFF715FEC9E70029C7D080
:102C6C008029C5D000F04FFCC2E76388002BBFD190
:102C7C0011F07F0F03D1284600F082F8B8E700F07E
:102C8C0050FCD5F814329B68214628469847F2E749
:102C9C0090F8FC31022B05D0032B09D02146FFF70D
:102CAC00F1FDA5E711F07F0FA2D000F02CFC9FE7FF
:102CBC0012F0800F11D101F07F04103400EB0414DA
:102CCC000434284600F03BFC70B10123236002223F
:102CDC002146284600F028F88AE701F07F040134E9
:102CEC0000EB04140434ECE700232360EFE7D0B1CD
:102CFC0070B50D4616460446FFF796FD01304000B0
:102D0C0080B23080287003236B70022307E00134FB
:102D1C005A1CD2B2E9540233DBB20021A9542178F7
:102D2C000029F4D170BD704710B513460222C0F8CB
:102D3C00F4218361C3610A46002100F021FC0020CC
:102D4C0010BD08B513460A46002100F019FC0020FE
:102D5C0008BD10B513460322C0F8F421C0F80831A1
:102D6C00C0F80C310A46002100F018FC002010BD00
:102D7C0008B513460A46002100F010FC002008BDDF
:102D8C0008B50423C0F8F43100231A46194600F0A4
:102D9C00F7FB002008BD08B50523C0F8F43100236B
:102DAC001A46194600F0FAFB002008BD00B589B0A0
:102DBC00144B9A6942F020029A619A6902F020023F
:102DCC000192019A9A6942F004029A619A6902F09E
:102DDC0004020292029A9A6942F008029A619B6973
:102DEC0003F008030393039B4FF440430493064BF7
:102DFC0005930123069304A90448FDF77BFA09B057
:102E0C005DF804FB0010024000001110000C0140A2
:102E1C0008B5002211462820FDF700FA2820FDF7FE
:102E2C0031FA002211461420FDF7F8F91420FDF7B1
:102E3C0029FA08BDFEE7000008B50E480E4B0360EA
:102E4C004FF48273436000238360C360036143616A
:102E5C004FF4007282610822C26103624362836292
:102E6C000A23C362FEF750FB00B908BDF6210348E4
:102E7C00FFF7E0FF0402002000300140B83F0008DB
:102E8C0000B58DB01848194B036000234360836074
:102E9C004FF6FF72C26003614361836103220392A8
:102EAC0004930122059206930A2107910893099233
:102EBC000A930B9303A9FEF7A3FB50B900230193CC
:102ECC00029301A90848FEF717FC38B90DB05DF85C
:102EDC0004FB4FF48A710648FFF7ACFF40F21B115C
:102EEC000348FFF7A7FF00BFC4010020002C0140DE
:102EFC00B83F000800B58DB018484FF08043036010
:102F0C000023436083604FF6FF72C26003618361EC
:102F1C000322039204930122059206930A2107913E
:102F2C00089309920A930B9303A9FEF769FB50B916
:102F3C0000230193029301A90848FEF7DDFB38B981
:102F4C000DB05DF804FB4FF49C710548FFF772FF60
:102F5C0040F23F110248FFF76DFF00BF5C020020FA
:102F6C00B83F000808B50B480B4B03604FF4E13336
:102F7C00436000238360C36003610C224261836160
:102F8C00C361FEF7EAFC00B908BD4FF4A971034810
:102F9C00FFF750FF8401002000380140B83F0008C3
:102FAC0000B595B001220A924FF480330B930021A7
:102FBC000C910E920222119212934FF4E013139380
:102FCC000AA8FDF70FFF48BB0F23059302210691BA
:102FDC00002307934FF480620892099305A8FEF72B
:102FEC0027F9F8B9102301930023049301A8FEF7E5
:102FFC0001FAD8B9FEF7D8F90E4BA3FB00308009C3
:10300C00FDF74CF90420FDF75FF9002211464FF053
:10301C00FF30FDF703F915B05DF804FBB12106484C
:10302C00FFF708FFBF210448FFF704FFC621024841
:10303C00FFF700FFD34D6210B83F000800B585B014
:10304C000023019302938DF80C30FDF79DF8FFF7E8
:10305C00A7FFFFF7ABFEFFF7EFFE00F067F9FFF7F6
:10306C000FFFFFF747FFFFF77DFFFFF7D1FE18219A
:10307C000E48FEF71FFB0E4B5B6A9B080093009AF1
:10308C000C4901A800F050FB4FF400410A48FDF731
:10309C001BFA0028EFD16423092201A90748FEF787
:1030AC008BFC4FF4FA70FDF793F8E4E7C4010020B1
:1030BC00002C0140C83F0008000C01408401002096
:1030CC0000B583B0244B9A6942F001029A619A6967
:1030DC0002F001020092009ADA6942F08052DA6141
:1030EC00DB6903F080530193019B0320FDF784F807
:1030FC00002211466FF00B00FDF790F800221146EC
:10310C006FF00A00FDF78AF8002211466FF00900F3
:10311C00FDF784F8002211466FF00400FDF77EF8ED
:10312C00002211466FF00300FDF778F800221146DB
:10313C006FF00100FDF772F8002211464FF0FF30DE
:10314C00FDF76CF8054A536823F0E06343F0007315
:10315C00536003B05DF804FB001002400000014016
:10316C0002680F4B9A4200D0704700B587B003F548
:10317C0060439A6942F480529A619B6903F48053CC
:10318C000193019BA0230293022303930323059332
:10319C0002A90448FDF7AEF807B05DF804FB00BFC8
:1031AC00003001400008014000B587B003681A4A9E
:1031BC00934205D0B3F1804F18D007B05DF804FBF3
:1031CC00164B9A6942F400629A619B6903F400639E
:1031DC000093009B4FF4407302930023039301234D
:1031EC00049302A90E48FDF785F8E6E703F50433CE
:1031FC00DA6942F00102DA61DB6903F00103019341
:10320C00019B03230293002303930123049302A93C
:10321C000348FDF76FF8D0E7002C01400010024086
:10322C00000801400268174B9A4200D0704710B555
:10323C0086B003F558439A6942F480429A619B69BF
:10324C0003F480430193019B4023029302230393D5
:10325C00032305930C4C02A92046FDF74BF8802361
:10326C00029300230393049302A92046FDF742F82E
:10327C00064A536843F0E06343F00403536006B01E
:10328C0010BD00BF00380140000C0140000001409F
:10329C007047FEE7FEE7FEE7FEE7704770477047B2
:1032AC0008B5FCF783FFFDF720F808BD08B5024808
:1032BC00FDF765FC08BD00BFC004002008B502483E
:1032CC00FDF75DFC08BD00BFC004002008B54FF43D
:1032DC008040FDF701F94FF40040FDF7FDF808BD03
:1032EC000F4B1A6842F001021A6059680D4A0A40E5
:1032FC005A601A6822F0847222F480321A601A68BA
:10330C0022F480221A605A6822F4FE025A604FF4AA
:10331C001F029A60044B4FF000629A60704700BF26
:10332C00001002400000FFF800ED00E010B5094C61
:10333C00002209492046FFF747F908492046FFF7C4
:10334C005AF907492046FFF738F92046FFF75AF992
:10335C0010BD00BF9C020020B80000204C000020D3
:10336C008C00002002680E4B9A4200D0704700B5CA
:10337C0083B003F5DA33DA6942F40002DA61DB690F
:10338C0003F400030193019B002211461320FCF768
:10339C0045FF1320FCF776FF03B05DF804FB00BF7C
:1033AC00005C004008B500F22C41D0F85C04FFF73B
:1033BC0042F908BD08B500EB4113D3F83C22D0F814
:1033CC005C04FFF765F908BD08B500EB4113DA6B37
:1033DC00D0F85C04FFF791F908BD08B5D0F85C048F
:1033EC00FFF714FA08BD10B504460121D0F85C04AF
:1033FC00FFF7FAF9D4F85C04FFF7D7F910BD000019
:10340C0010B50446D0F85C04FFF7F1F9A36923B1B9
:10341C00024A136943F00603136110BD00ED00E08E
:10342C0008B5D0F85C04FFF7EBF908BD10B50446FD
:10343C001B48C0F85C44C4F820021A4B03600823F4
:10344C004360022383600323C36000238361C36151
:10345C000362FDF74FF8E8B9182300221146D4F89F
:10346C002002FDF791FC582300228021D4F8200281
:10347C00FDF78AFC982300228121D4F82002FDF765
:10348C0083FCD82300220121D4F82002FDF77CFC18
:10349C00002010BD4FF498710348FFF7CBFCDBE71D
:1034AC00C0040020005C0040D03F000808B5D0F8F4
:1034BC002002FDF78AF818B1022803D0022008BDBB
:1034CC000020FCE70120FAE710B51C461346224603
:1034DC00D0F82002FDF7A4F818B1022803D002207E
:1034EC0010BD0020FCE70120FAE708B5D0F8200257
:1034FC00FDF7BFF818B1022803D0022008BD002048
:10350C00FCE70120FAE708B5D0F82002FDF7E7FB4D
:10351C0018B1022803D0022008BD0020FCE70120CE
:10352C00FAE708B5D0F82002FDF707FC18B102281D
:10353C0003D0022008BD0020FCE70120FAE7D0F8F8
:10354C00203211F0800F06D101F07F0103EB411105
:10355C0091F82A02704701F07F0103EB411191F8B9
:10356C002A00704708B5D0F82002FDF745F818B1CD
:10357C00022803D0022008BD0020FCE70120FAE756
:10358C0008B5D0F82002FDF7BAF818B1022803D01C
:10359C00022008BD0020FCE70120FAE708B5D0F8AE
:1035AC002002FDF78DF818B1022803D0022008BDC7
:1035BC000020FCE70120FAE7004870475801002082
:1035CC0070477047002070470020704700207047FC
:1035DC0012230B8000487047A000002004230B80AE
:1035EC0000487047B400002008B50A4628B10549C8
:1035FC000548FFF77CFB034808BD02490248FFF76A
:10360C0076FBF8E720090020E43F000810B5044CD5
:10361C000A4621460348FFF76AFB204610BD00BF4F
:10362C00200900200440000808B50A4628B10549C5
:10363C000548FFF75CFB034808BD02490248FFF749
:10364C0056FBF8E7200900201840000808B50A4688
:10365C0028B105490548FFF74AFB034808BD024954
:10366C000248FFF744FBF8E7200900202840000837
:10367C0008B50A4628B105490548FFF738FB034849
:10368C0008BD02490248FFF732FBF8E72009002089
:10369C003C400008002103E00B4B5B5843500431C5
:1036AC000A480B4B42189A42F6D30A4A02E000230E
:1036BC0042F8043B084B9A42F9D3FFF711FE00F095
:1036CC000FF8FFF7BBFC704790400008000000208B
:1036DC003801002038010020240B0020FEE70000F8
:1036EC0070B500250C4E0D4CA41BA410A54209D19D
:1036FC0000F03AFC00250A4E0A4CA41BA410A5426B
:10370C0005D170BD56F8253098470135EEE756F8CF
:10371C00253098470135F2E78840000888400008BA
:10372C00884000088C4000080EB46FF0004100B5D2
:10373C009CB01DAB02900690079104910848094972
:10374C0053F8042B0591006802A9019300F066F868
:10375C000022029B1A701CB05DF804EB03B070479A
:10376C00D40000200802FFFF2DE9F0478E68824646
:10377C009E420C469046994637D88A8912F4906F2F
:10378C0031D00223256809696F1A656905EB450577
:10379C0095FBF3F509F101033B449D4238BF1D46EF
:1037AC00530530D5294600F037FB064650B90C239B
:1037BC004FF0FF30CAF80030A38943F04003A381D7
:1037CC00BDE8F0873A46216900F0B6FAA38923F4E4
:1037DC00906343F08003A38126613E4426604E46ED
:1037EC006561ED1BA5604E4500D94E4632464146FB
:1037FC00206800F0ACFAA36800209B1BA360236830
:10380C001E442660DCE72A4600F060FB06460028D2
:10381C00E2D12169504600F0B3FAC8E72DE9F04F28
:10382C001D468B899DB01F0680460C4616460FD54B
:10383C000B696BB9402100F0EFFA2060206128B9C8
:10384C000C23C8F800304FF0FF30C8E04023636110
:10385C000023099320238DF8293030234FF0010BDE
:10386C008DF82A30039537463D4615F8013B0BB1D0
:10387C00252B3ED1B7EB060A0BD0534632462146D8
:10388C004046FFF771FF013000F0A480099B5344C0
:10389C0009933B78002B00F09D8000234FF0FF3202
:1038AC00CDE90523049307938DF853301A932F46D3
:1038BC00052217F8011B504800F030FA049BD0B9D0
:1038CC00D90644BF20228DF853201A0744BF2B225F
:1038DC008DF853202A782A2A15D02F4600200A2545
:1038EC00079A394611F8013B303B092B4DD9B8B139
:1038FC000FE02F46B8E7404A3D46801A0BFA00F01D
:10390C0018430490D3E7039A111D12680391002AFF
:10391C0001DB079204E0524243F002030792049346
:10392C003B782E2B0CD17B782A2B33D1039B02377F
:10393C001A1D1B680392002BB8BF4FF0FF33059381
:10394C002E4D03223978284600F0E8F938B140238F
:10395C00401B03FA00F0049B0137034304933978AE
:10396C00062227487E1C8DF8281000F0D7F9002875
:10397C0038D0244B13BB039B073323F007030833C6
:10398C000393099B4B4409936DE705FB023201201D
:10399C000F46A6E700230A2519460137059338463A
:1039AC0010F8012B303A092A03D9002BC8D0059105
:1039BC00C6E705FB012101230746F0E703AB0093A3
:1039CC002246114B04A94046AFF30080B0F1FF3FF3
:1039DC008146D6D1A3895B063FF535AF09981DB05A
:1039EC00BDE8F08F03AB00932246074B04A9404679
:1039FC0000F082F8EAE700BF544000085A40000883
:103A0C005E40000800000000753700082DE9F04703
:103A1C0091461F468A680B6906469342B8BF134607
:103A2C00C9F8003091F843200C46DDF8208012B123
:103A3C000133C9F800302368990642BFD9F8003029
:103A4C000233C9F80030256815F0060507D104F1DA
:103A5C00190AE368D9F800209B1AAB4229DC94F8C8
:103A6C0043302268003318BF012392062ED404F190
:103A7C00430239463046C047013021D02368E568FF
:103A8C0003F00603042B18BF0025D9F800204FF0D3
:103A9C00000908BFAD1AA368226908BF25EAE575BD
:103AAC009342C4BF9B1AED181A344D451AD100200D
:103ABC0008E00123524639463046C047013003D155
:103ACC004FF0FF30BDE8F0870135C2E73020E11838
:103ADC0081F843005A1C94F845102244023382F8B2
:103AEC004310C4E70123224639463046C047013013
:103AFC00E6D009F10109D8E72DE9F04301F1430CB7
:103B0C000C46097E85B06E291746064698460C9AD7
:103B1C0000F0B38022D8632936D00AD8002900F0EF
:103B2C00B980582900F0838004F1420584F84210D2
:103B3C0032E0642901D06929F6D1206813680506A2
:103B4C0003F104012AD51B681160002B03DA2D2226
:103B5C005B4284F843206F480A2239E0732900F055
:103B6C009D8008D86F2920D07029DDD1236843F0BF
:103B7C002003236003E0752917D07829D4D178234A
:103B8C00654884F8453055E0136804F14205191D69
:103B9C001B68116084F8423001238CE01B6810F024
:103BAC00400F116018BF1BB2CFE713682568181DB2
:103BBC001060280601D51B6802E06806FBD51B883F
:103BCC006F2914BF0A2208225248002184F843109E
:103BDC006568002DA560C0F29580216821F0040174
:103BEC002160002B3DD1002D40F08E806546082AC7
:103BFC000BD12368DB0708D5236962689A42DEBFC4
:103C0C00302305F8013C05F1FF35ACEB05032361CE
:103C1C00CDF800803B4603AA21463046FFF7F6FE5E
:103C2C0001304DD14FF0FF3005B0BDE8F08339487D
:103C3C0084F84510136821681D1D1B6815600A0661
:103C4C000BD5CA0744BF41F0200121601BB9226883
:103C5C0022F0200222601022B7E74D0648BF9BB22B
:103C6C00EFE76546B3FBF2F102FB1133C35C05F8D9
:103C7C00013D0B460029F5D1B9E713682568181DDD
:103C8C006169106028061B6801D5196002E06A069C
:103C9C00FBD51980002365462361B9E71368191D0C
:103CAC0011601D6862680021284600F037F808B1E1
:103CBC00401B606063682361002384F84330A7E7EE
:103CCC0023692A4639463046C0470130AAD02368BA
:103CDC009B0713D4E068039B9842B8BF1846A3E730
:103CEC0001234A4639463046C04701309AD0013547
:103CFC00E368039A9B1AAB42F2DCEBE7002504F174
:103D0C001909F5E7002BACD1037804F1420584F8CE
:103D1C0042306CE7654000087640000810B5C9B227
:103D2C0002449042034601D1002303E01C78013089
:103D3C008C42F6D1184610BD10B5431E0A44914270
:103D4C0000D110BD11F8014B03F8014FF7E7884281
:103D5C0010B501EB020307D8421E99420AD011F8A4
:103D6C00014B02F8014FF8E78342F5D98118D21ABA
:103D7C00D34200D110BD13F8014D01F8014DF7E706
:103D8C0038B50546002943D051F8043C0C1F002BD4
:103D9C00B8BFE41800F0D0F81E4A1368104633B9C7
:103DAC00636014602846BDE8384000F0C6B8A342F2
:103DBC000BD921686218934201BF1A685B685218CC
:103DCC00226063600460EDE713465A680AB1A242B0
:103DDC00FAD919685818A0420BD120680144581818
:103DEC0082421960DED110685268014419605A6031
:103DFC00D8E702D90C232B60D4E7206821188A421B
:103E0C0001BF116852680918216062605C60C9E7E3
:103E1C0038BD00BF7401002070B5CD1C25F0030522
:103E2C0008350C2D38BF0C25002D064601DBA942A8
:103E3C0003D90C233360002070BD00F07DF8214ABB
:103E4C001468214691B9204C23681BB9304600F008
:103E5C0063F820602946304600F05EF8431C24D1FC
:103E6C000C233046336000F068F8E4E70B685B1B0A
:103E7C0018D40B2B0FD90B60CC18CD50304600F05A
:103E8C005CF804F10B00231D20F00700C31AD3D0FB
:103E9C005A42E250D0E74B688C4216BF6360136005
:103EAC000C46EBE70C464968CCE7C41C24F0030431
:103EBC00A04205D0211A304600F02EF80130CFD0A8
:103ECC002560DBE77401002078010020F8B5074677
:103EDC0014460E4621B9BDE8F8401146FFF79CBFC9
:103EEC0022B9FFF74DFF25462846F8BD00F026F80D
:103EFC00A0420FD221463846FFF78EFF0546002818
:103F0C00F2D031462246FFF717FF31463846FFF70D
:103F1C0037FFE9E73546E7E738B50023054C05469A
:103F2C000846236000F012F8431C02D1236803B149
:103F3C002B6038BD200B00207047704751F8043CB3
:103F4C00181F002BBCBF0B58C0187047044A0549FA
:103F5C001368002B08BF0B461844106018467047B6
:103F6C007C010020280B0020F8B500BFF8BC08BC71
:103F7C009E467047F8B500BFF8BC08BC9E4670471B
:103F8C0002030405060708090A0B0C0D0E0F10108E
:103F9C000102000000000000000000000102030408
:103FAC000607080900000000010203042E2E2F53FF
:103FBC0072632F6D61696E2E630000004142433ABB
:103FCC00256400002E2E2F5372632F757362645F6D
:103FDC00636F6E662E63000053544D33322043756D
:103FEC0073746F6D2048756D616E20696E746572A7
:103FFC00666163650000000053544D6963726F6520
:10400C006C656374726F6E696373000030303030AE
:10401C003030303030303141000000004375737463
:10402C006F6D2048494420436F6E6669670000003D
:10403C00437573746F6D2048494420496E746572E2
:10404C006661636500000000232D302B2000686C36
:10405C004C0065666745464700303132333435369F
:10406C0037383941424344454600303132333435D8
:0C407C0036373839616263646566000005
:0440880031010008FA
:04408C000D0100081A
:10409000010000001000000009022900010100C019
:1040A000320904000002030000000921110100018F
:1040B0002202000705810302002007050103020018
:1040C000200000000A06000200000040010000007D
:1040D0000921110100012202000000007F250008D3
:1040E0004D2500087D240008000000002B24000856
:1040F00021240008592400080000000000000000EE
:1041000000000000152400081524000815240008EC
:104110004D2400080000000000A24A049C0000207A
:10412000D1350008D5350008D935000800C0000099
:1041300012010002000000408304505700020102F7
:104140000301000004030904DD350008E935000817
:1041500019360008F53500083536000859360008CC
:104160007D360008D800002000000000000000009C
:10417000000000000000000000000000000000003F
:10418000000000000000000000000000000000002F
:10419000000000000000000000000000000000001F
:1041A000000000000000000000000000000000000F
:1041B00000000000000000000000000000000000FF
:0841C0000000000000000000F7
:04000005080036A118
:00000001FF
